:1000000030C154C153C152C1BDCA50C14FC14EC10C
:100010004DC14CC14BC14AC149C148C147C188000B
:10002000FF006600FF004400FF002200FF00000008
:10003000FF000011FF000022FF000033EE0000442B
:10004000DD000055CC000066BB000077AA000088E8
:1000500099000099880000AA770000BB660000663E
:10006000FF000033FF000000FF001100FF0044000C
:10007000FF007700EE00AA00BB00DD008800FF0053
:100080006600FF004400FF002200FF000000FF00A8
:100090000000FF222200FF444400FF6666000000CB
:1000A000FF00002AD5000055AB00007FAB0000AB7D
:1000B000AB0000D5560000FF00002AD5000055AB6C
:1000C0000000AA560000FF000000D5002A00AB0087
:1000D000550081007F005500AB002B00D500701942
:1000E00019008B00000070191900800000008B00BF
:1000F0000000CD000000578B2E0080800000A09EE5
:100100005F00FF0000008B8B0000ED956400D4FFC2
:100110007F00578B2E00FFFF0000FACE8700000003
:1001200000000000800000000000000080000000CF
:100130008B000000800000008B0000008B0000009E
:100140008B000000FF0000A5FF00FFFFFF0000A5DF
:10015000FF000000FF0000008B000000000097A0DF
:10016000895B5A0F830DC95F6035C2E907E18C24B2
:10017000671E458E086325F0150A17BE0694F778AA
:10018000EA4B001AC53E5EFCDBCB75230B2039B170
:100190002158ED953857AE147D88ABA844AF4AA5D9
:1001A00047868B301BA64D929EE7536FE57A3CD372
:1001B00085E6DC695C29372EF528F4668F3641190F
:1001C0003FA101D85049D14C84BBD05912A9C8C411
:1001D000878274BC9F56A4646DC6ADBA034034D9FF
:1001E000E2FA7C7B05CA2693767EFF5255D4CFCEA9
:1001F0003BE32F103A11B6BD1C2ADFB7AAD577F81A
:1002000098022C9AA346DD99659BA72BAC09811611
:1002100027FD13626C6E4F71E0E8B2B97068DAF6D0
:1002200061E4FB22F2C1EED2900CBFB3A2F15133D4
:1002300091EBF90EEF6B31C0D61FB5C76A9DB8546C
:10024000CCB07379322D7F0496FE8AECCD5DDE72E0
:10025000431D1848F38D80C34E42D73D9CB4970090
:100260003B0811241FBECFE5D2E0DEBFCDBF10E0BA
:10027000A0E6B0E0ECEFF8E102C005900D92AA37DD
:10028000B107D9F721E0AAE7B0E001C01D92A93675
:10029000B207E1F712E0C2E6D2E003C02297FE0106
:1002A000E3DAC036D107D1F718D226CBA9CECF9347
:1002B000DF9300D000D000D0CDB7DEB7AB011C82F9
:1002C0001D821E82DC01ED91FC910190F081E02DF8
:1002D00019821A821B829E012F5F3F4FBE016C5F05
:1002E0007F4F099526960FB6F894DEBF0FBECDBF9F
:1002F000DF91CF910895FC0185859685089580E969
:1003000091E00895B99A0895482F809166009091E0
:10031000670065E078E0DCD9875E994C90936700D0
:1003200080936600890F642F70E090E0D1D9892F07
:100330000895DB0120E030E0FD0145915591659184
:100340007491FC01E20FF31F608351834283149682
:100350002D5F3F4F2033310579F70895EF92FF92DB
:100360000F931F93CF93DF9300D01F92CDB7DEB7CB
:100370008091E700813061F018F08230C1F1A2C0B5
:100380008AE5EBEEF0E0DF011D928A95E9F7F0C017
:1003900040D98091EA00262F281B80EE90E0009043
:1003A000E80002C0959587950A94E2F7281738F07F
:1003B0006093EA008091E9008F5F8093E9000091EB
:1003C000E9001EE1FF24FA9411500983FA82FB82AE
:1003D000812F90E063E070E07BD9BC0165517F4FD5
:1003E000CE01019680D60D5F1111EECFC1C011D99B
:1003F0008091EA00B62FB81BB13108F4B9C0609300
:10040000EA00E5EEF0E027EE30E003E010E0808166
:10041000429150E0BA01680F711DCB01840F951F06
:10042000B8017BD9D9016E939D01B0E0E93CFB078F
:1004300071F7809166009091670065E078E048D997
:10044000875E994C9093670080936600890F883788
:10045000A0F484E059DF182F8FE556DF212F30E01C
:100460008056F901E753FF4F4081582F450F08F49C
:100470004FEFF901E753FF4F4083A9ECEA2EA0E0CC
:10048000FA2E00E010E0D7016C91CE0101960AD659
:10049000F801E551FF4F898180838A8181838B81B7
:1004A000828380E231DFF7012081382F231B08F49B
:1004B00020E0D7012D937D010D5F1F4F0A351105F7
:1004C00011F756C0A6D88091EA00B62FB81BB930F4
:1004D000F8F06093EA002FE330E00090E80002C0FB
:1004E000220F331F0A94E2F78091C5009091C60055
:1004F000A091C700B091C800820F931FA11DB11D2C
:100500008093C5009093C600A093C700B093C80025
:10051000FEE1FF2EFA942091C5003091C600409173
:10052000C7005091C8006F2D70E080E090E0ECE0D3
:10053000660F771F881F991FEA95D1F7EED701E064
:1005400010E02FEFAC0165E970E0CE010196B5D364
:100550008F2D90E063E070E0BBD8FC01E551FF4FC8
:10056000898180838A8181838B818283F110D2CFBC
:100570006091530183E591E06AD40F900F900F9042
:10058000DF91CF911F910F91FF90EF90089580918F
:10059000E800815008F485E08093E8006091E8006D
:1005A00082E090E09BC98091E700883010F01092C3
:1005B000E7008091E700853089F028F4833041F02E
:1005C000843049F00895863061F0873069F00895ED
:1005D0006EE171E00BC06EED70E008C06EE170E09E
:1005E00005C06EE970E002C06EE570E085E990E05C
:1005F000A0CE8091E7008F5F8093E700D4DF609109
:10060000E70081E090E06AC980918D0081114BC0C4
:100610008DE890E047D8892B09F445C010927E0000
:1006200010927D008FEF80938100809382008093F1
:10063000830080938400809385008093860081E00E
:100640008093870010928900109288001092800099
:1006500010927F008091510190915201892B31F4C9
:100660008BE790E09093520180935101E0914F010C
:10067000F0915001309721F08BE790E095838483CF
:100680008BE790E09093500180934F0110928B0084
:1006900010928A008CE690E090937C0080937B001F
:1006A0008DE890E008D820E030E04EE150E06BEEBD
:1006B00070E08BE790E09AD481E090E007D98F3F1B
:1006C00009F481E08093E70082E090E0FFD88F3F5B
:1006D00009F482E08093E80066CFCBD78CE087BB3B
:1006E00081E288BB91DF3ADE86B390918C00892746
:1006F0008172C9F386B380938C00B09B7ADFB59B7F
:1007000046DF8FEF8150F1F7EECF9F92AF92BF920D
:10071000CF92DF92EF92FF920F931F93CF93DF93CD
:10072000EC01E881F98198B3926088B38D7F88BB32
:100730005A852F81D52ED21ADF82AF84AA81BB8140
:100740002D853C854E852F5F3F5F4F5FEE80F8849F
:100750009984CB851181C12C0C2D6C2D7C2D718140
:100760001127889471117D0D08F47FEFD19488943E
:1007700020FD170F1795889421FD170F1795889462
:1007800022FD170F1795889423FD170F179588944E
:1007900024FD170F1795889425FD170F179588943A
:1007A00026FD170F1795889427FD170F1795889426
:1007B000072F2111012FD50E102F002C98BB00C040
:1007C00017FF88BB70810027889400C000C0002CF0
:1007D00088BB71117E0D00C0002C98BB00C016FFB5
:1007E00088BB08F47FEFE194889400C000C0002C1F
:1007F00088BB30FD070F00C0002C98BB00C015FF60
:1008000088BB0795889431FD070F00C000C0002CFD
:1008100088BB0795889400C0002C98BB00C014FFCB
:1008200088BB32FD070F0795889400C000C0002CDC
:1008300088BB33FD070F00C0002C98BB00C013FF1E
:1008400088BB0795889434FD070F00C000C0002CBA
:1008500088BB0795889400C0002C98BB00C012FF8D
:1008600088BB35FD070F0795889400C000C0002C99
:1008700088BB36FD070F00C0002C98BB00C011FFDD
:1008800088BB0795889437FD070F00C000C0002C77
:1008900088BB0795889400C0002C98BB00C010FF4F
:1008A00088BB172F3111102FE90C00C000C0002C9D
:1008B00088BB00C000C0002C98BB00C017FF88BBDD
:1008C00072810027889400C000C0002C88BB711181
:1008D0007F0D00C0002C98BB00C016FF88BB08F439
:1008E0007FEFEA0DF11D00C000C0002C88BB40FD69
:1008F000070F00C0002C98BB00C015FF88BB0795F0
:10090000889441FD070F00C000C0002C88BB0795EC
:10091000889400C0002C98BB00C014FF88BB42FD27
:10092000070F0795889400C000C0002C88BB43FDCA
:10093000070F00C0002C98BB00C013FF88BB0795B1
:10094000889444FD070F00C000C0002C88BB0795A9
:10095000889400C0002C98BB00C012FF88BB45FDE6
:10096000070F0795889400C000C0002C88BB46FD87
:10097000070F00C0002C98BB00C011FF88BB079573
:10098000889447FD070F00C000C0002C88BB079566
:10099000889400C0002C98BB00C010FF88BB172FA4
:1009A0004111102FF19400C000C0002C88BBFC0E38
:1009B00000C000C098BB00C017FF88BB7181002732
:1009C000889400C000C0002C88BB71117D0D00C050
:1009D000002C98BB00C016FF88BB08F47FEFD194B1
:1009E000889400C000C0002C88BB20FD070F00C009
:1009F000002C98BB00C015FF88BB0795889421FD8B
:100A0000070F00C000C0002C88BB0795889400C069
:100A1000002C98BB00C014FF88BB22FD070F079570
:100A2000889400C000C0002C88BB23FD070F00C0C5
:100A3000002C98BB00C013FF88BB0795889424FD49
:100A4000070F00C000C0002C88BB0795889400C029
:100A5000002C98BB00C012FF88BB25FD070F07952F
:100A6000889400C000C0002C88BB26FD070F00C082
:100A7000002C98BB00C011FF88BB0795889427FD08
:100A8000070F00C000C0002C88BB0795889400C0E9
:100A9000002C98BB00C010FF88BB172F2111102F0E
:100AA000D50E00C000C0002C88BB119709F086CE7F
:100AB000DF91CF911F910F91FF90EF90DF90CF903A
:100AC000BF90AF909F9008950F931F93CF93DF93A4
:100AD000EC018B01AAD52F853889621B730B6A3014
:100AE0007105C0F3F894C80110DE78949ED5788B18
:100AF0006F87DF91CF911F910F910895FC01118AAB
:100B0000108A0895EF92FF920F931F93CF93DF9374
:100B1000EC0180917A008F5F982F977090937A0004
:100B200080FD02C080E001C080E891FD8064947087
:100B300009F08062805F20E030E000E011E0E82E04
:100B4000F12CFE01E20FF31F6485662331F070E0A3
:100B5000C801E3D541E0460F01C040E04187842F42
:100B600090E00196B701B4D5911102C0168202C07F
:100B700091509683442311F0415041872F5F3F4F9E
:100B800023303105F1F6DF91CF911F910F91FF9046
:100B9000EF900895EF92FF920F931F93CF93DF93FF
:100BA000CDB7DEB762970FB6F894DEBF0FBECDBFEC
:100BB0008C017A01F901DC011C968C917A8369839E
:100BC0005C834B835E834D8390819D8791819E875B
:100BD00092819F87813021F4CE01019693DF06C078
:100BE0001C861B861A86198618861F82188AB701EA
:100BF000CE01019683DFD801ED91FC910484F58547
:100C0000E02DBE016F5F7F4FC801099562960FB658
:100C1000F894DEBF0FBECDBFDF91CF911F910F9132
:100C2000FF90EF900895EF92FF920F931F93CF9351
:100C3000DF93CDB7DEB762970FB6F894DEBF0FBE75
:100C4000CDBF8C017A01F901DC011C968C917A836D
:100C500069835C834B835E834D8390819D87918103
:100C60009E8792819F87813021F4CE0101964ADFD1
:100C700006C01C861B861A86198618861F8283E08A
:100C8000888BB701CE01019639DFD801ED91FC9137
:100C90000484F585E02DBE016F5F7F4FC801099583
:100CA00062960FB6F894DEBF0FBECDBFDF91CF9135
:100CB0001F910F91FF90EF900895EF92FF920F9385
:100CC0001F93CF93DF937C01952F92959F70DA014C
:100CD00084E0B695A7958A95E1F7FB01892F63E03B
:100CE000EED4EF01C80FD11DAA2319F081E0012B2A
:100CF00009F480E0188149813A81882341F19F30CD
:100D000011F0FE013396CA2FC095D0E02196612FD5
:100D100070E0CE01DDD4192FBB271196608170E001
:100D2000CD01D6D4190F642F70E0CE01D1D4492F54
:100D3000618170E0CD01CCD4490F632F70E0CE010A
:100D4000C7D4392F628170E0CD01C2D4390F2F3F53
:100D500029F1222301F12F5F112341F0622F70E06E
:100D60006F5F7F4F812F90E0B3D4192F442341F060
:100D7000622F70E06F5F7F4F842F90E0A9D4492FDE
:100D8000332361F0622F70E06F5F7F4F832F90E01D
:100D90009FD4392F03C030E040E010E0F70110830A
:100DA00041833283C701DF91CF911F910F91FF9053
:100DB000EF900895CF92DF92EF92FF920F931F93DF
:100DC000CF93DF93EC018091490190914A019C01FE
:100DD0002F5F3F4F30934A012093490186179707B1
:100DE0006CF117D48B019C018091490190914A01CB
:100DF00068EE73E06DD4BC01882777FD8095982F4D
:100E0000C0904501D0904601E0904701F090480124
:100E10000C191D092E093F09A901980191D43A83A3
:100E2000298310924A0110924901F3D3609345013E
:100E3000709346018093470190934801DF91CF91D1
:100E40001F910F91FF90EF90DF90CF9008958F92B8
:100E50009F92AF92BF92FF920F931F93CF93DF9316
:100E600000D01F92CDB7DEB78C01F62EF80183813A
:100E70009481A581B681892B8A2B8B2BC9F0D5D380
:100E800080904B0190904C01A0904D01B0904E018C
:100E9000681979098A099B09D80113968D909D904C
:100EA000AD90BC901697681579058A059B05F0F200
:100EB000BCD360934B0170934C0180934D01909390
:100EC0004E01D8011B96ED91FC911C97309751F083
:100ED000D80117964D915D916D917C911A978F2D48
:100EE0000995F82EA0905101B0905201A114B104BF
:100EF00039F1F5019484D80111968D919C91129746
:100F00008436910508F41486D501ED91FC91119772
:100F10000280F381E02DF982FA82FB821D964D91C9
:100F20005C911E9712966D917C9113979E012F5F95
:100F30003F4FC5010995F5019486A480B580D6CFB1
:100F400069E170E0C80136DF0F900F900F90DF91DC
:100F5000CF911F910F91FF90BF90AF909F908F9076
:100F60000895CF92DF92EF92FF920F931F93CF934A
:100F7000DF93EC014423E9F06115710571F19B01E8
:100F800040E050E060E472E48FE090E0FBD3CB807F
:100F9000DC80ED80FE8089019A010C151D052E056F
:100FA0003F0510F4970186010B831C832D833E833C
:100FB00014C06115710569F09B0140E050E060E4E8
:100FC00072E48FE090E0DED32B833C834D835E831D
:100FD00004C01B821C821D821E82DF91CF911F9153
:100FE0000F91FF90EF90DF90CF900895CF92DF9216
:100FF000EF92FF920F931F93CF93DF9300D0CDB763
:10100000DEB76C017B018901121613061CF08A0100
:1010100040E050E0D601ED91FC910480F581E02D97
:10102000C60149835A8309954981842F5A81952F96
:1010300063E070E04DD38E0D9F1DF6019383828394
:10104000168705870190F081E02D0284F385E02D5D
:10105000C601099541E0BC0183E591E082DFC6014C
:101060000F900F90DF91CF911F910F91FF90EF9014
:10107000DF90CF9008958FEF809353011092550128
:101080001092540110925F0110925E018FEF9FEF5A
:10109000DC0180935A0190935B01A0935C01B093B3
:1010A0005D010895FC01262F862F90E06FEB70E024
:1010B0000FD381E0211101C080E0980F892F880FA4
:1010C000880F97FF05C09FEF90839183828309C0AB
:1010D00096FF04C09FEF9083818302C080831182BA
:1010E0001282CF010895CF93DF93DC01FB01DC91E5
:1010F0001196CC9111971296BC912D2F2F71220F22
:10110000220F220F30E0C90166E570E0E1D2492FDD
:10111000892F9D2F9074AD2FA072D7FD1EC0911105
:101120000AC0A11103C04095382F10C035E5340F17
:1011300020E04BEA2DC0A1110BC0C9016BEA70E0A1
:10114000C7D28BEA891B3AEA340F482F20E020C02F
:1011500090E0342F3095242F0CC091110FC0A111B5
:101160000AC0C9016BEA70E0B3D23BEA391B25E53E
:10117000290F40E00DC0242F209509C0A11103C004
:101180004B5A2BEA03C0465590E025E5281B30E07A
:10119000CF3F69F1CC2341F1442341F06C2F70E043
:1011A0006F5F7F4F842F90E093D2492F332341F01C
:1011B0006C2F70E06F5F7F4F832F90E089D2392FC3
:1011C000222341F06C2F70E06F5F7F4F822F90E001
:1011D0007FD2292FC0956C2F70E0CB01019678D279
:1011E000490F390F290F03C02FEF3FEF4FEFBF3FDC
:1011F00061F16B2F70E0A1E0B11101C0A0E0CB0163
:1012000067D2A90FF9F0442341F06A2F70E06F5FB5
:101210007F4F842F90E05CD2492F332341F06A2F17
:1012200070E06F5F7F4F832F90E052D2392F2223DF
:1012300061F06A2F70E06F5F7F4F822F90E048D29D
:10124000292F03C020E030E040E040833183228337
:10125000DF91CF9108958F929F92AF92BF92CF92DC
:10126000DF92EF92FF92CF93DF93EC016A01E12CC2
:10127000F12C8617970794F4CB018C1B9D0BBC01B6
:1012800080E090E0A70196012F5F3F4F4F4F5F4FE7
:1012900097D25A01CE018A0D9B1D10C0861B970B59
:1012A000BC0180E090E0A70196012F5F3F4F4F4FB8
:1012B0005F4F86D25A01CE018A199B09DF91CF91E7
:1012C000FF90EF90DF90CF90BF90AF909F908F9066
:1012D00008952F923F924F925F926F927F928F92DA
:1012E0009F92AF92BF92CF92DF92EF92FF920F93B5
:1012F0001F93CF93DF93CDB7DEB72A970FB6F8943D
:10130000DEBF0FBECDBF29013A016A01EE24FF24E2
:10131000282F30E0F901E25AFE4F44914C0D50E085
:10132000FA01E25AFE4F3490FA01E15AFE4F44911D
:101330004987F901E15AFE4F24912C0D30E0F90163
:10134000E25AFE4F2490F901E15AFE4F54915A8718
:101350008B01169507955201B694A79445019B0100
:10136000AC0144275527CA01B9016F5F7F4F8F4FEA
:101370009F4F26D229833A834B835C8389819A814C
:10138000AB81BC816D01EE24FF24A30192014427AF
:101390005527CA01B9016F5F7F4F8F4F9F4F10D202
:1013A00029833A834B835C836D837E838F83988705
:1013B00029813A814B815C812A0166247724980136
:1013C00030583A832983E22DF0E0E25AFE4FE4914F
:1013D0008E2F8770843020F4950189819A8103C013
:1013E00029813A81C501E0FF03C09195819591095A
:1013F000E1FF03C0319521953109BC013595279551
:1014000075956795621F731FE32DF0E0E25AFE4F5A
:10141000E4918E2F8770843018F49501480101C043
:101420009801E0FF03C0919481949108E1FF03C00B
:10143000319521953109A401359527955595479505
:10144000421F531FCA01A60106DF4C0150E8B51A1E
:101450008A85E82FF0E0E25AFE4FE4918E2F8770E4
:10146000843028F469817A81BA82A98201C0B501E9
:10147000E0FF03C0719561957109E1FF07C0298103
:101480003A813195219531093A83298329813A811D
:101490003595279575956795621F731F3985E32FDD
:1014A000F0E0E25AFE4FE4918E2F8770843028F4EA
:1014B0009A2D8B2D5801092F182FE0FF03C0B194EE
:1014C000A194B108E1FF03C0119501951109A5018F
:1014D0001595079555954795401F511FCA01A601BF
:1014E000BADEA201BC01C4012A960FB6F894DEBF91
:1014F0000FBECDBFDF91CF911F910F91FF90EF9065
:10150000DF90CF90BF90AF909F908F907F906F9023
:101510005F904F903F902F909ECE8F929F92AF9270
:10152000BF92CF92DF92EF92FF92D3DEBC01882769
:1015300077FD8095982F64567C4B8F4F9F4F24EEFC
:1015400031E040E050E03CD149015A01BB27AB2DCE
:101550009A2D892DFF90EF90DF90CF90BF90AF90A4
:101560009F908F90089583B7887F83BF8AB58C7FC3
:1015700081608ABD83B7877F83BF83B7887F83609D
:1015800083BF089578941F920F920FB60F92112483
:101590002F933F938F939F93AF93BF93809161015C
:1015A00090916201A0916301B0916401309160015A
:1015B0002CE7230F2D3728F02FEF230F0196A11DC5
:1015C000B11D209360018093610190936201A0930B
:1015D0006301B09364018091650190916601A091CF
:1015E0006701B09168010196A11DB11D809365014D
:1015F00090936601A0936701B0936801BF91AF918A
:101600009F918F913F912F910F900FBE0F901F9040
:1016100018952FB7F89460916101709162018091E3
:101620006301909164012FBF08953FB7F8948091B2
:10163000650190916601A0916701B09168012FB595
:1016400008B602FE05C02F3F19F00196A11DB11D7D
:101650003FBF6627782F892F9A2F620F711D811D3A
:10166000911D42E0660F771F881F991F4A95D1F799
:101670000895789480B7806880BF80B7806480BF09
:101680008CB580648CBD8FEF8DBD80B7807F876007
:1016900080BF89B7846089BF66DF86B1876086B9FD
:1016A000379A0895FC0181E090E02081222311F017
:1016B00080E090E0089521E0FC012083089500245B
:1016C00080FD060E660F11F08695D1F7802D0895E6
:1016D0000024552704C0080E591F880F991F009732
:1016E00029F076956795B8F37105B9F7802D952F98
:1016F0000895AA1BBB1B51E107C0AA1FBB1FA61759
:10170000B70710F0A61BB70B881F991F5A95A9F7AA
:1017100080959095BC01CD01089597FB072E16F496
:10172000009406D077FD08D0E4DF07FC05D03EF436
:10173000909581959F4F0895709561957F4F08957D
:10174000A1E21A2EAA1BBB1BFD010DC0AA1FBB1FC5
:10175000EE1FFF1FA217B307E407F50720F0A21B37
:10176000B30BE40BF50B661F771F881F991F1A94A4
:1017700069F760957095809590959B01AC01BD01CE
:10178000CF010895052E97FB16F400940FD057FD56
:1017900005D0D6DF07FC02D046F408C0509540952E
:1017A000309521953F4F4F4F5F4F0895909580950D
:1017B000709561957F4F8F4F9F4F089568940013E8
:1017C000E894A0E0B0E0E6EEFBE01DC0EFEFE7F943
:1017D00059016A015E23550FEE08FE2C87019B011B
:1017E000AC019E23990F660B762FCB0141D0CDB76C
:1017F000DEB7EAE024C02F923F924F925F926F9241
:101800007F928F929F92AF92BF92CF92DF92EF9290
:10181000FF920F931F93CF93DF93CDB7DEB7CA1B11
:10182000DB0B0FB6F894DEBF0FBECDBF09942A883C
:10183000398848885F846E847D848C849B84AA84E4
:10184000B984C884DF80EE80FD800C811B81AA8171
:10185000B981CE0FD11D0FB6F894DEBF0FBECDBF3C
:10186000ED010895EE0FFF1F0590F491E02D09940E
:10187000DF93CF939F92A0E49A2E0024D001E00141
:10188000F00116950795F794E794D794C794B79409
:10189000A79448F41068A20FB31FC41FD51FE61FFA
:1018A000F71F081E191E220F331F441F551F661FE6
:1018B000771F881F991F9A9421F79D01AE01BF01E0
:1018C000C00111249F90CF91DF910895E199FECF3F
:1018D0009FBB8EBBE09A99278DB30895262FE1997F
:1018E000FECF1CBA9FBB8EBB2DBB0FB6F894E29AFD
:0C18F000E19A0FBE01960895F894FFCF16
:1018FC00000069018000390500000000CA051306CC
:0A190C00820157017B017F01640591
:00000001FF
